:020000040800F2
:10000000D01200204D010008473600085732000882
:1000100045360008BD0400083171000800000000EA
:10002000000000000000000000000000295E000841
:10003000870A000800000000453F0008415F0008F3
:100040006701000867010008F56000086701000803
:1000500067010008670100086701000867010008E0
:1000600067010008670100086701000867010008D0
:10007000670100086701000867010008CD09000852
:1000800067010008670100086701000867010008B0
:1000900067010008670100086701000867010008A0
:1000A0006701000867010008670100086701000890
:1000B0006701000867010008670100086701000880
:1000C0006701000867010008670100086701000870
:1000D000670100084D6C000867010008670100080F
:1000E000670100086701000825440008670100084F
:1000F0006701000867010008670100086701000840
:100100006701000867010008295500086701000819
:10011000670100086701000867010008670100081F
:10012000670100086701000867010008670100080F
:100130006701000867010008DFF80CD000F0ACF997
:10014000004800473D730008D01200200648804751
:1001500006480047FEE7FEE7FEE7FEE7FEE7FEE7AC
:10016000FEE7FEE7FEE7FEE7F16000083901000860
:100170002DE9F05F0546002092469B4688460646DC
:10018000814640241BE0284641464746224600F06F
:100190003BF953465A46C01A914110D311461846AE
:1001A000224600F022F92D1A67EB01084F4622463D
:1001B0000120002100F019F917EB00094E41201E23
:1001C000A4F10104DFDC484631462A464346BDE837
:1001D000F09F40EA01039B0703D009E008C9121F02
:1001E00008C0042AFAD203E011F8013B00F8013BF1
:1001F000521EF9D27047D2B201E000F8012B491E1D
:10020000FBD270470022F6E710B513460A460446B3
:100210001946FFF7F0FF204610BD421C10F8011BE5
:100220000029FBD1801A7047F0B480EA0102D40F94
:100230004200B2EB410F02D20246084611464A0084
:1002400042D0C30DDDB2C1F3C752AD1A202D35DA4D
:10025000C1F3160141F4000204B15242C5F1200677
:1002600002FA06F12A411044B3EBD05F23D0C4B1A7
:10027000012DA0EBC35009DCF0BC4FF0004202EAB4
:10028000C352DBB200F5000000F0D7B8400000F127
:10029000807000EBC350A0F1807040EAD17049003B
:1002A00009E0490841EAC071A0EBC35000F5000025
:1002B000400800EBC350F0BC00F0B6B86142012228
:1002C00002EB4101001BF6E7F0BC704781F00041F2
:1002D000AAE780F00040A7E780EA010210B502F02B
:1002E0000043400022D04A001FD0010E01EB1261F2
:1002F000C0F35600C2F3560240F4000042F400027C
:10030000A0FB022000047F39140400D0401C50EAF6
:10031000124001D44000491EC2B20C0604EBD010BA
:10032000401C4008802A02D003E0002010BD20F0CD
:100330000100002900DA0020184310BD30B480EA23
:10034000010202F0004530F0004221F0004013D0DD
:1003500090B1C30DD40DC2F31601C0F31600E41A18
:1003600041F4000140F400027D34914201D3641C49
:1003700000E04900002C02DA30BC002070474FF446
:1003800000000023914201D3891A034340084FEA39
:100390004101F7D151B1914202D14FF0004105E046
:1003A00002D24FF0010101E06FF0010103EBC450F4
:1003B000284430BC00F038B896230022114600F0E3
:1003C0003CB820F00040C10DC0F3160040F400001E
:1003D0007F2901DA00207047962903DCC1F19601DC
:1003E000C8407047963988407047202A04DB203A7D
:1003F00000FA02F1002070479140C2F1200320FA78
:1004000003F3194390407047202A04DB203A21FA75
:1004100002F00021704721FA02F3D040C2F120021D
:1004200091400843194670470029A8BF7047401CF7
:10043000490008BF20F00100704710B4B0FA80FCFA
:1004400000FA0CF050EA010404BF10BC704749B137
:10045000CCF1200421FA04F411FA0CF118BF0121A7
:1004600021430843A3EB0C01CB1D4FEA00614FEA87
:10047000102042BF002010BC704700EBC350104456
:100480000029A4BF10BC7047401C490008BF20F0E1
:10049000010010BC70470000064C074D06E0E06804
:1004A00040F0010394E8070098471034AC42F6D3BB
:1004B000FFF746FEFC8100081C820008FEE72DE9DC
:1004C000FF4103F063FC09D1E06D012804D1206EE7
:1004D00030442066304618E00120E0650027A787F9
:1004E00026662068A16803F022FB03F00AFA28B10F
:1004F000A06D40F01000A065276553E003F09FFA5F
:1005000008B1012062E003F0E5F9B708000718BF61
:1005100027F0030700F0D4FF80466E1CE18FB4F88B
:1005200040008F4288BF874211D903F025FB002E7F
:10053000F4D000F0C5FFA0EB0800A84201D8002DC0
:10054000ECD12068016821F00101016028E0B4F8D5
:100550004200010739D003F092FB02F01802102A82
:1005600001D103F0AAFA11F00306C1F1100218BF7D
:10057000012606EB92014FEA92080A463AB1E38F50
:10058000676B013A57F8233003F08DF9F6E7002244
:10059000032902D882600131FAE703F0B2F920B1F1
:1005A00003F084FA0120606510E003F060FB042989
:1005B00004D0C36842F821300131F8E708EB0600A7
:1005C000694610B103F0ACF9FBE7002004B0BDE8C8
:1005D000F0812DE9FF4103F0D9FB09D1E06D01283D
:1005E00004D1206E3044206630461AE00120E065D8
:1005F0000027A78726662068A16803F0E1F903F0C9
:1006000080F938B1A06D40F01000A0652765012089
:10061000606565E003F013FA08B1012060E003F0C3
:1006200059F9B708000718BF27F0030700F048FF83
:1006300080466E1CE18FB4F840008F4288BF87422D
:1006400013D903F099FA002EF4D000F039FFA0EB93
:100650000800A84201D8002DECD12068016821F0E3
:100660000101016003F022FAD1E7B4F8420001076A
:1006700035D003F004FB12F0180F01D103F01DFA7E
:1006800011F00306C1F1100218BF012606EB92011A
:100690004FEA92080A463AB1E38F676B013A57F87E
:1006A000233003F000F9F6E70022032902D8826024
:1006B0000131FAE703F025F908B103F02AF903F054
:1006C000D6FA042904D0C36842F821300131F8E792
:1006D00008EB0600694610B103F022F9FBE70020A1
:1006E00004B0BDE8F0817FB50446C08F03F08AFBFB
:1006F000E08F0130E087204600F0D5F828B120686F
:1007000003F09AF8204600F0EDFA2168002208680C
:1007100040F0800008606846042A04D0CB6840F8A6
:1007200022300132F8E7B4F8421000220331890880
:10073000B4F84030032A0FD899420DD950F822302E
:10074000B4F84050A66B013246F82530B4F840307A
:100750000133A4F84030EBE77FBD00002DE9F843FA
:100760000D46826A01680446D0F81C900868002A89
:1007700008BF4FEA8909B9F1000F18D001224FEAEA
:10078000990803F0C7FA08605FEA09701CD028F0E6
:1007900003060027B74224D203F03DFA216800285F
:1007A0000A684CD142F0800004370860F2E76268C2
:1007B00020F00600104301220860086803F0AAFA3E
:1007C00008600020BDE8F88300264645F9D203F012
:1007D00022FA21680A6890BB42F080000436086063
:1007E000F3E708F0030002464AB1A38FA669013A75
:1007F00056F823308B60A38F0133A387F4E719F0F9
:10080000030210D0A38F6668A769033802EB460283
:10081000134E57F8233056F822201A408A6048B108
:1008200001300022FAE760F00300002210B18A6074
:100830000130FBE703F065F821680A6860B122F037
:1008400001000860A06D40F01000A0650020206548
:1008500001206065BDE8F88342F08000B0E700BF8A
:100860007C7E0008C268EAB199B1B1F5802F19D138
:1008700011680068C1635168816391684163D16800
:1008800001631169C1615169816191694161D169F6
:1008900007E011680068C161516881619168416138
:1008A000D16801617047F8B50C46054600F008FEB6
:1008B0000646671C28684068C0071CBF0020F8BDBA
:1008C000002FF7D000F0FCFD811B0120A14201D8D0
:1008D000002CEFD1F8BD00002DE9F04F85B0DFF816
:1008E000D8B04FF0000902204FF00208CDF8109068
:1008F000D8470220D8470220D8470220D8470320F3
:100900002E4D6C462E4F4FF4805A03900120214605
:10091000CDF800A0CDE901002846B8474FF40050BB
:1009200002F09FFE4FF4804002F09BFE4FF4806087
:1009300002F097FE234E28464FF480510022B04724
:1009400028464FF400510022B04728464FF480411A
:100950000022B04728464FF480610022B0470D20A6
:10096000CDE901890490F02000900120D8474FF094
:1009700090402146B8470620CDE90189CDF800A076
:1009800004900120D8474FF090402146B8470020FE
:100990004FF080714FF0804201F046FA0A4801683A
:1009A00041F48041016000F0D5F900F0DDF900F07C
:1009B000D5F905B0BDE8F08FB9340008000400484F
:1009C00035130008B514000890080058014800F0DD
:1009D0009BBA00BF5408002010B51049836C104C1E
:1009E00001F1640223F0030302650268A24238BFEA
:1009F00004F57E7119441423C1646FF00701A2420B
:100A000051FA82F1B1FBF3F128BF0731012201F065
:100A10001F0102FA01F1416510BD00BF1C08024030
:100A20000804024010B5436807490124583003F018
:100A30007F0301F14002013B01EB830103F003035B
:100A400004FA03F30EC010BD00090240F0B500F136
:100A5000500670CE656016B1D0E917456560046830
:100A60008568D0E91160012700F01C00102D07FAFD
:100A700000F070600846636008BF1046A06008BFC1
:100A80000A46E260F0BD7047FEE70000B0B5204ABC
:100A9000536843F480235360EFF31083EFF3108423
:100AA00072B6402420C9013C20C02506FAD1106846
:100AB000C003FCD483F31088B0BD00BF70B5144EE2
:100AC000044600F0FDFC05463068C00305D500F083
:100AD000F7FC401BA042F7D317E03068C1071CBFEA
:100AE000012131604CF2FA31084004D009494860D4
:100AF0003060012070BD306840035CBF002070BDD5
:100B000000F0DEFC401BA042F5D3032070BD00BF07
:100B10001040005898090020F8B503F0D5F833D1FB
:100B200002266665206D01285ED00020069DE087C4
:100B3000A4F84000676A2068002F08BF9200A4F85C
:100B40004220026866F3C40202600122C4E90D1368
:100B50002265634A0168114008D0202906D0B1F50A
:100B6000803F20D0602923D0402928D1E16A012983
:100B700004D1E16D012926D00121E1656169402997
:100B800007D103F084F809E003F089F80126A06595
:100B90002AE0216B51B302F06EFF0160606988B1F9
:100BA00002F0CBFD0FE020462946FFF788FC03E06A
:100BB00020462946FFF70DFD0646A8B910E003F0D0
:100BC0006AF8E3E7206803F083F803F075F805D2CC
:100BD0008008814202D202F0CFFFF6E702F0E7FF81
:100BE00000260120266560653046F8BD01680126B3
:100BF00066F3C40101602046A168FFF733FE206858
:100C0000016841F00101016002F07BFE21680A6881
:100C100030B122F00100086002F048FF6665E3E7AA
:100C200042F0800002220860086862F3C400086095
:100C3000B4E700BF70B503F047F82AD102F0EDFE2B
:100C40002BD00020049DE087A4F84000666A20684D
:100C5000002E08BF920002F037FF2265204A01688B
:100C6000114008D0202906D0B1F5803F16D0602968
:100C700019D040291ED1E16A012904D1E16D012971
:100C80001CD00120E06503F059F816D002F055FDA4
:100C900014E003F004F8A065012070BD2046294649
:100CA000FFF70DFC03E020462946FFF792FC0028E1
:100CB000F3D110E002F0EFFFEDE7206803F008F851
:100CC00002F0FAFF05D28008814202D202F054FFFE
:100CD000F6E702F06CFF002001212065616570BD20
:100CE0006000010070470000C8B170B50446406D57
:100CF00020B900202065204600F016F894E807008F
:100D00006369084E05683540294311431943016062
:100D100000200121A065E0656164616570BD01206E
:100D2000704700BF99FFFAFF81B000680749884209
:100D300009D10748016841F400310160006800F4FE
:100D400000300090009801B0704700BF00180058B4
:100D500050000058064802F0C1BE00BF04480168B8
:100D600041F0040101607047014802F088BC00BFF7
:100D7000042004E040B3B0B5816A022926D101689D
:100D800000F144041CCC0D6803F01C0325F00E0593
:100D90000D60256825F4807525600C6824F0010439
:100DA0000C60012101FA03F35360D0E9142353606E
:100DB000826D32B1136823F480731360D0E9172376
:100DC00053608162002104E0012106E004210164F6
:100DD000012100224262BDE8B04008467047B0B52C
:100DE000816A022929D10168D0E91132C46C0D68E9
:100DF00025F00E050D600D6825F001050D602168D8
:100E000021F48071216002F01C01012202FA01F13B
:100E10005960D0E914134B60816D31B10B6823F434
:100E200080730B60D0E917134B600021416282622E
:100E3000C26B2AB19047002102E004210164012124
:100E40000846B0BD60B10068CB06026805D5C9028E
:100E500054BF22F4801242F48012026000207047D6
:100E600001207047F8B54FF0010C002844D003680A
:100E7000244A7A4F0446196802F5806521F0010181
:100E800019601F490E1DB3423CBF0025C4F2020584
:100E900038BF07F580671F441420B7FBF0F08700C8
:100EA000C4E911570025B3421D6038BF111D1C2233
:100EB00002EA80000CFA00F008602046FFF78CFD83
:100EC000606804F14C030ECB013803280D605360B9
:100ED00007D82046FFF7A6FD04F1580207CA0560AF
:100EE0004A602564C4E916552566C4E90C55C4E971
:100EF0000E556562A56200E001252846F8BD00BFD9
:100F00000404024000000240F0B5D0E9112301685A
:100F1000042403F01C0316680D689C40344201D081
:100F20006F0719D402249C40344201D0AF071DD46E
:100F300026FA03F4240731D52C072FD50C6824F0AA
:100F40000E040C60012101FA03F3536000220164D6
:100F500042628162816B1DE00B689B0603D40B68C3
:100F600023F004030B605460416B13E00A6892069F
:100F700005D40A6822F00A020A6001228262002275
:100F80004262074A02F17C03994288BF02F58062FF
:100F90001460016B11B1BDE8F0400847F0BD00BF1F
:100FA0000400024000284AD0F8B5044602202A492D
:100FB000A06204F10806206801F1080268CE9042A0
:100FC000264A38BFA1F5806138BF02F58062142738
:100FD0000244B2FBF7F29200C4E9111247F6F07234
:100FE00001689143016045EA03016269314311439D
:100FF000A2691143E2691143226A11430268114355
:1010000001602046FFF7E8FCA06804F14C03B0F54E
:10101000804F06BF00206060606800F07F050ECB47
:10102000013803280D6053600BD82046FFF7FAFC07
:1010300004F15802002307CA03604A6005E001205A
:1010400070470020C4E916002066002001212064BA
:101050006062A162F8BD00BF00040240F8FBFDBF62
:10106000B0B50446406A012804BF0220B0BD01208B
:101070006062A06A012812D10220A06200202064D0
:101080002068056825F0010505602046FFF7DEFCB5
:101090002068626B016842B141F00E010BE0002054
:1010A0006062802020640120B0BD21F00401016055
:1010B000016841F00A010160E16C0A68D20303D5BE
:1010C0000A6842F480720A60A16D19B10A6842F49C
:1010D00080720A60016841F0010101600020B0BD2A
:1010E00081B00090009801B005F032B82DE9F84FBA
:1010F000DFF824A10546DAF80000012804BF022029
:10110000BDE8F88F002401208946CAE9000402F0F6
:10111000BFFAC8BB2868414B1D4A04289B4607D12B
:101120001968901C0843186002F0B2FA5B4627E089
:101130004FF0FF301749C9F8000068688846C400BE
:101140000646A968084486420FD21868174600EA86
:10115000080020431043186002F09AFA38B9686812
:10116000083401363A465B46EBE7002002E05B4676
:10117000C9F80060196840F2FA32002491431960FE
:1011800053F8141C53F8141CCAF80040BDE8F88F3B
:101190000200010005FCFEFF1F484068704700BFC9
:1011A0001E48016841F0004101600068C043C00F63
:1011B000704700BF2DE9F843174F044638680128EF
:1011C00004BF0220BDE8F8834FF0000901209846D3
:1011D00016460D46C7E9000902F056FAB8B90F499C
:1011E000012C0AD1086840F0010008602E60BFF3AE
:1011F0006F8FC5F804800D4604E028460D46314641
:10120000FFF744FC02F040FA2968A1432960C7F8BF
:101210000090BDE8F88300BF9809002014400058F2
:101220000648C168B1F1FF3FC4BF002070470449C0
:10123000016004490160C068C00F70470840005851
:1012400023016745AB89EFCD2DE9FC4F914A4FF063
:10125000000890424FF0070208BF0222002400233A
:101260000092019131FA03F608BFBDE8FC8F01221C
:1012700002FA03F616EA010E57D0884A4FEA930C99
:10128000B0F1904F52F82C9007D0854ADDF800A0BD
:10129000904208BF4FF0010A01E04FF0000A08F049
:1012A0000C0B0721424601FA0BF80AFA0BF509EA82
:1012B0000807AF421BD17849D1F8805025EA0E05C6
:1012C000C1F88050D1F8845025EA0E05C1F8845049
:1012D0000D6825EA0E050D604D6825EA0E054D6086
:1012E0006E4951F82C5025EA080541F82C5003218D
:1012F0000768904601FA04F50F212F43076002F0BA
:101300001C0701FA07F76FF0030101EA53020244D8
:10131000116AB94311628168A94381604168B14390
:101320004160C168A943C160019908F10408023411
:10133000013397E72DE9F84F564A4FF000084FF078
:10134000010B4FF0000E90424FF0070208BF02223F
:1013500000920027514A92460A6832FA07F308BF02
:10136000BDE8F88F0BFA07F312EA030900F08B804F
:101370004E68122E4DD80BFA06F515F0061F48D010
:101380000322846802FA0EF5CA68AC436FEA050CC2
:1013900002FA0EF22243826032094468BA4024EA1B
:1013A00003031A437B004260C2688C6802EA0C02A5
:1013B0009C402243C26046F01002122A11D16FF005
:1013C000030508F01C020F2405EA57059440054464
:1013D0002E6A26EA04040E6906FA02F222432A6201
:1013E0004E68026806F0030404FA03F302EA0C02F2
:1013F0001A430260F20046D5BB0852465AF82360F1
:10140000B0F1904F0CD0264A009D904208BF0125B4
:1014100007E0032202FA0EF36FEA030C7346C3E7F8
:10142000002508F00C020724944005FA02F226EA8F
:101430000404194E224354464AF82320D6F880204B
:101440004C6842EA0903E50358BF22EA0903C6F8DB
:101450008030A503D6F8842042EA090358BF22EA67
:101460000903C6F88430E502326842EA090358BF2E
:1014700022EA09033360A402726842EA090358BFF2
:1014800022EA0903736008F104080EF1020E013725
:1014900062E700BF0008004800080058080001404B
:1014A00000040048426902EA0103914341EA034112
:1014B000816170471823002A08BF2823C150704754
:1014C00004F074BE01480068704700BF9075FF1FAC
:1014D00001480068704700BF9475FF1F426C202AC6
:1014E00002D1026C012A01D1022115E024224264BA
:1014F0000268136823F001031360136823F4805318
:101500001360136819431160116841F00101116003
:10151000002120220164426408467047426C202A60
:1015200002D1026C012A01D1022114E0242242647A
:101530000268136823F001031360136823F47063D7
:1015400043EA01211160116841F00101116000219D
:10155000202201644264084670470000F8B1B0B52B
:101560000446406C20B900202064204600F002F9B7
:1015700024206064D4E90003D4E90212056823F052
:101580007063012A25F0010505600361836823F477
:101590000043836005D141F40041816009E00120EE
:1015A000704741F40441022A816004BF4FF4006196
:1015B000416041680D4A04F1100511434160C16862
:1015C00021F40041C1602ECD114341EA0321C160E5
:1015D000216A29430160016841F001010160002096
:1015E0002021E06461642063A064B0BD008000023B
:1015F0002DE9F84302F00BFB02D1206C012802D147
:10160000022702F0CABB02F0A4FB02F0D0F90028C6
:10161000F7D1222002F089FB2448618DB1F5807F4B
:1016200002D302F021FA01E002F039FA20464146E5
:1016300001F04CFE089F0025FF26608D48B3204630
:1016400039464A4601F088FE40BB02F002F9F4D167
:101650000028F2D02046802100223B4602F055F9B6
:10166000E0B902F05EFB21BF268500952046414689
:1016700027BFFF224FF08073608D20853FBF00950C
:10168000C2B22046414638BF4FF0007301F01EFE43
:10169000D3E72046394602F0A0FB08B10127B0E7A6
:1016A00020682021324B02F0FEFAAAE700240080D5
:1016B0002DE9F84302F0ABFA02D1206C012802D1E7
:1016C000022702F06ABB02F044FB02F070F9002826
:1016D000F7D1212002F029FB2448618DB1F5807FEC
:1016E00002D302F0C1F901E002F0D9F920464146E7
:1016F00001F0ECFD089F0025FF26608D48B32046D1
:1017000039464A4601F079FE40BB02F0BDF8F4D1FB
:101710000028F2D02046802100223B4602F0F5F856
:10172000E0B902F0FEFA21BF268500952046414629
:1017300027BFFF224FF08073608D20853FBF00954B
:10174000C2B22046414638BF4FF0007301F0BEFDE3
:10175000D3E72046394602F040FB08B10127B0E745
:1017600020682021024B02F09EFAAAE700200080A8
:1017700000E800FE10B594B004460EA81421FEF750
:1017800041FD684634210430FEF73CFD20681549D0
:10179000884201D014B010BD4FF4401007904FF4B0
:1017A00080700090684600F001F900B1FEE7042067
:1017B000042401F067FE00201294CDE910001220ED
:1017C0000F9003200E9008480EA9FFF7B3FD0748BD
:1017D000016841F400010160006800F4000013900A
:1017E0001398D7E7005C00400008004858000058F4
:1017F0000348044940680A6810440860704700BF05
:1018000024000020C80A002080B5032000F058F80A
:1018100000F06CFA3F4908600F2000F007F808B1AB
:10182000012080BD00F004F8002080BD002070473A
:101830007047000000280CD400F01F01012240096D
:1018400002FA01F1034A42F82010BFF34F8FBFF3B1
:101850006F8F704780E100E0002808D400F01F017E
:101860000122400902FA01F1014A42F820107047B2
:1018700000E100E0F0B5184B4FF0FF361C68C4F3F0
:101880000224E51E84F0070438BF002506FA05F798
:10189000BA43042C28BF042406FA04F4A14300F040
:1018A0000F04A940043C11432344044A09010C33AA
:1018B000B0F1FF3FC8BF83181970F0BD00E400E02D
:1018C00005494FF6FF030A681A4060F30A220348ED
:1018D00010430860704700BF0CED00E00000FA05FF
:1018E00020483222016821F48041016009490968D9
:1018F0005143094AB1FBF2F14A1E43698A4203D2BD
:1019000013F400711146F7D140690321800501EA03
:10191000E07070473800002040420F00114802F08C
:10192000DEB900BF0F49022301280A6863F30202EF
:101930000A601D490A6842F004020A600FBF30BF06
:1019400040BF20BF20BF01F0A7BE00BF0548006810
:1019500000F4C060704700BF0248016841F4807124
:10196000016070470004005810B50C460D49096825
:1019700001F4007118B139B9FFF7D0FF04E019B1D3
:10198000FFF7AEFF00B110BD0748012C016821F040
:101990000401016004BF30BF10BD40BF20BF20BFA5
:1019A00010BD00BF1404005810ED00E0F8B5044667
:1019B0008078544EC00742D0FFF7CEFFFFF780FD7E
:1019C0000546D6F8F403C00506D4FFF779FD401BA1
:1019D0000228F6D9032533E0606BD6F8841001F4B1
:1019E0004071814224D0D6F88410D6F8842042F485
:1019F0008032C6F88420D6F8842022F48032C6F8DB
:101A0000842021F4407289070146C6F884200FD54E
:101A1000FFF756FD054641F28837D6F88400800767
:101A200005D4FFF74DFD401BB842F6D9D2E7616BF4
:101A3000D6F8840020F440700843C6F884000025DE
:101A40002068C10702D0616802F0BDF8810702D5A5
:101A5000A16802F0B8F8810605D52169F26F22F479
:101A600040621143F167810502D5216A01F02DFE24
:101A7000410502D5616A01F028FE010502D5A16A7F
:101A800001F023FE410603D5606901F031FD2068B5
:101A9000010603D5A06901F02BFD2068C10503D51F
:101AA000E06901F025FD2068C1060CD5E168F26F00
:101AB00022F440720A43B1F5807FF26703D13168A6
:101AC00041F08071316001040AD5216BF26F22F080
:101AD00040420A43F26719B9316841F080713160C0
:101AE00040040CD5E06AF16F21F040510143B0F1A0
:101AF000005FF16703D1306840F4803030602846E1
:101B0000F8BD00BF0C0000582DE9F843002800F094
:101B1000B780734F05460C46386800F007008842CE
:101B200011D2386820F00700204302F0DDF80646A5
:101B3000386800F00700A04205D0FFF7C1FC801B09
:101B40000228F5D96EE02868B946CA4F810711D539
:101B5000A868396821F0F001084302F0C5F806468C
:101B60003868C00305D4FFF7ABFC801B0228F7D907
:101B700058E02868810615D56869D7F8001121F06A
:101B8000F0010843C7F80001FFF79AFC0646D7F8B2
:101B90000001800305D4FFF793FC801B0228F6D9CF
:101BA00040E02868410616D5A869D7F8001121F051
:101BB0000F0141EA1010C7F80001FFF781FC06464B
:101BC000D7F80001C00305D4FFF77AFC801B022878
:101BD000F6D927E02868410711D5E868396821F46B
:101BE000E061084302F080F806463868800305D4B7
:101BF000FFF766FC801B0228F7D913E0286801076D
:101C000014D52869396821F4605141EAC00002F016
:101C10006BF806463868400307D4FFF751FC801B79
:101C20000228F7D90320BDE8F8832868C0071CD133
:101C3000D9F8000000F00700A04224D9D9F800002C
:101C400020F007002043C9F80000FFF739FC0546E3
:101C50004846D9F8000000F00700A04213D0FFF773
:101C60002FFC01F0ACFFF3D930E068684FF0B041D1
:101C700098B103282CD002282ED1096889030FD4EB
:101C80000120BDE8F88300F031F8164908601648D5
:101C90000068BDE8F843FFF7C9BD09688907EFD5BB
:101CA000396821F00301084302F01EF8064641F2AC
:101CB00088386868396801F00C01B1EB800FB7D043
:101CC000FFF7FEFB811B03204145F2D9BDE8F883F5
:101CD00009688901D4D5E3E709684905D0D5DFE76C
:101CE00000400058380000202400002080B500F09B
:101CF00027F860493C22096802EA9101024A5158DA
:101D0000B0FBF1F080BD00BFC47E000880B5FFF7D6
:101D1000EDFF5849094A0968C1F3022152F8211020
:101D2000C84080BD80B5FFF7E1FF5249034A09680A
:101D3000C1F3C22152F82110C84080BD047F0008C1
:101D400010B5364951F8042C086812F00C0205D081
:101D50000C2A15D100F00300012811D14FF0B0403A
:101D60000368006800F008001B0705D4B8B9D1F873
:101D70008800C0F303201CE0B0B9D1F8880011E05E
:101D80002748042A1ED0082A1BD14FF0B0421268FF
:101D9000D2025CBF44F60000C0F2E81012E04FF03F
:101DA000B0400068002004E04FF0B0400068C0F38D
:101DB00003101C4B002A53F82030184618BF00208F
:101DC00001E00020002351F8042C02F00C020C2A40
:101DD00022D1086800F003021148022A0CD0032A1D
:101DE00009D14FF0B0421268D2025CBF44F6000045
:101DF000C0F2E81000E018460A680B680968012480
:101E0000C2F3062204EB51715043C3F302120132B4
:101E1000B0FBF2F0B0FBF1F010BD00BF0C000058B9
:101E20000024F400E07F000870B586B0114E0D4626
:101E300069461446706C40F001007064706C00F0EC
:101E40000100059003200390022001904FF4807060
:101E5000009000200490029005984FF09040FFF70A
:101E600069FA316844EA050021F0FE410843306018
:101E700006B070BD080000582DE9F047002800F0BA
:101E80005981DE4C8246606800F00C08A06800F0C2
:101E900003099AF80000800627D49AF80000C007CA
:101EA00070D0B8F1080F63D0B8F10C0F08BFB9F1CA
:101EB000030F5DD04FF0B041DAE901020B6823F463
:101EC00080131A43B0F5803F0A6009D0B0F5041FB3
:101ED00040F096814FF0B040026842F40012026078
:101EE000086840F48030086097E1B8F1000F1DD019
:101EF000B8F10C0F08BFB9F1010F17D04FF0B04681
:101F00003068DAF82010002900F0348140F0010038
:101F100001F049FC05463068800700F13A81FFF77F
:101F2000CFFA01F04CFEF6D9BDE8F0874FF0B04192
:101F30000868800704D5DAF82000002800F0FA804D
:101F4000DAF828000968090759BFD4F89010090980
:101F50004FF0B041096801F0F001884240F2D480AE
:101F600002F012F9002840F0E58001F09AFBE4E06D
:101F70004FF0B0400068800304D5DAF80400002870
:101F800000F0D8809AF80000800730D5B8F1040F2F
:101F90001BD0B8F10C0F08BFB9F1020F15D04FF0EC
:101FA000B0463068DAF81010002900F0468140F49D
:101FB000807001F0F8FB0546306840050FD4FFF74C
:101FC0007FFA01F0FCFDF7D9AEE74FF0B0400068B2
:101FD000400504D5DAF81000002800F0AB80DAF8EC
:101FE0001400216821F0FE4141EA006020609AF867
:101FF000000000072CD49AF8000040074FD4DAF80C
:102000002C0010B3B8F10C0F40F0C680012800F08E
:102010009180DAF83010A06800F003028A4240F0A4
:102020008980DAF8341000F070028A4240F0828031
:10203000DAF8381000F4FE42B2EB012F7AD1DAF868
:10204000441000F06040884274D10020BDE8F08761
:10205000D4F89010DAF8180000287AD0DAF81C00CA
:1020600001F01002904200F08D8101F00302022A7B
:1020700060D0C90700F07F81D4F8900020F0010003
:1020800001F06EFE0546D4F89000800740F17181A2
:10209000FFF716FA411B03201129F4D944E7D4F8BD
:1020A000FC03C0050ED4FFF757FCFFF709FA0546FD
:1020B000D4F8FC03C00505D4FFF702FA01F07FFD58
:1020C000F6D931E7DAF80C00002800F0C580852841
:1020D00001D0052805D1D4F88C0040F00400C4F8E4
:1020E0008C00FFF7EDF901F037FC40F00100C4F877
:1020F0008C00D4F88C00800764D4FFF7E1F9411B11
:102100000320B142F5D90FE74FF0B0410A6842F021
:1021100008020A600A6822F0F00202430A60DAF854
:102120002410226822F47F4242EA0121216002F059
:102130002BF810B10120BDE8F087FFF7D7FD9B49D0
:1021400008609B480068FFF771FB00287FF4ECAE45
:10215000A3E621F0010001F003FE0546D4F890004B
:1021600080077FF548AFFFF7ABF9411B032011292A
:10217000F4D9D9E620F0010001F015FB05463068DE
:1021800080077FF58AAEFFF79BF901F018FDF6D9BD
:10219000CAE601F086FA80E64FF0B04602283168C0
:1021A00021F08071316071D1FFF78AF905463068FE
:1021B000800140F18180FFF783F9411B03200A2948
:1021C000F5D9B1E6DAF80C0040F00400852840F0BB
:1021D0009980FFF775F901F0BFFB40F08000C4F86B
:1021E0008C00D4F88C0000053FF509AFFFF768F9C3
:1021F000411B0320B142F4D996E600BF0400005809
:102200004FF0B0460028316821F4803131603168E8
:1022100021F40011316000F09E80FFF751F905466E
:102220004FF0B046306880033FF5ACAEFFF748F999
:10223000411B03206429F5D976E620F4807001F073
:10224000B2FA0546306840057FF5D1AEFFF738F9A0
:1022500001F0B5FCF6D967E6FFF732F90646D4F887
:102260008C0041F2883920F08000C4F88C00D4F84A
:102270008C0027460405FFF723F90546002C55D5A9
:10228000A91B03203C464945F1D94DE6A0684949C0
:1022900020F00300A060A0680840A060FFF710F9DC
:1022A0000446306880017FF5D0AEFFF709F9011BC5
:1022B00003200A29F5D937E6A0683F490AF130071B
:1022C0000840EECF0843104340EA032028434FF074
:1022D000B04530433843A060286840F080702860E3
:1022E000A06840F08050A060FFF7EAF80446286834
:1022F00080013FF5AAAEFFF7E3F8011B03200A298E
:10230000F5D911E6FFF7DCF801F026FB20F080009C
:10231000C4F88C00D4F88C0000057FF570AEFFF790
:10232000CFF8411B0320B142F4D9FDE5D7F88C006A
:102330003C4641F2883620F00100C7F88C00D4F802
:102340008C0080077FF55BAEFFF7BAF8411B0320D6
:10235000B142F4D9E8E5FFF7B3F8054630688003E9
:102360007FF510AEFFF7ACF8411B03206429F5D9C7
:10237000DAE5DAF81C00D4F8901021F010010843D7
:10238000C4F89000D4F8900040F0010001F0E8FC9F
:102390000546D4F8900080073FF52DAEFFF790F882
:1023A000401B1128F5D90320BDE8F0873800002034
:1023B00024000020FFFFFEEE8C80C1117047F8B5AD
:1023C00004468068012801D102253FE00120A06079
:1023D000E068012808D102200E46E06020684068CD
:1023E000400605D400250DE00420012520612BE0E6
:1023F00008202061204601F0D4FF0546012801D1C4
:10240000012523E0FFF75CF8074620684168C9070B
:102410000BD1FFF755F8C01B0328F6D30125002088
:10242000E560A0600220206110E08168616142687F
:10243000520601D4316005E008212161416821F094
:10244000010141600120E0600020A0602846F8BD45
:10245000B0B560B30446C06820B90020A060204633
:1024600000F05EF80220E060D4E90001026822F08A
:1024700004020260026822F02002114341F0804110
:102480000160204901614AF67421016101F060F99F
:10249000054620680168490013D5FFF711F8401B75
:1024A0000328F6D301200221E0602161B0BD16A40B
:1024B000002000210022234604F0CEFB0028F7D1A3
:1024C00019E0016841F0040101604068400610D441
:1024D000FEF7F6FF05462068406840070DD5FEF779
:1024E000EFFF401B0328F6D30420E06002202061A8
:1024F00001E00420E0600120B0BD0120E060002088
:102500002061B0BDBC0A59172A2A2A2A2A2A2A2A57
:102510002A0A20524E475F4552524F525F310A00FD
:10252000B0B590B0044601A834210430FDF76AFE2E
:102530000E4D216805F57B60814214D14FF040407B
:102540000D904FF40040019001A8FFF72FFA08B159
:10255000FEF79AFA286840F480202860286800F482
:1025600080200F900F9810B0B0BD00BF50000058F1
:1025700070470000034850F821007047014840F8B8
:102580002120704700B10040C26A0221012A0BD00D
:102590000163B049734601F03DF99E4642F02002C6
:1025A000734601F0A2F89E460846704780B503F0D6
:1025B000A5FD0130BDE8804003F0ACBD10B5044678
:1025C0001F480168490604D5402181602046FFF775
:1025D000EDFF0120206310BDC26A0221012A13D041
:1025E00001639C49734601F015F99E4642F0800252
:1025F0000A609A4A136843F480231360FF22CA607A
:1026000000210122C16202630846704704F0C8BC81
:1026100070B50B4D04462868616B01EA0006F007AF
:1026200004D00120A8602046FFF7F0FFB00704D5D2
:102630000220A8602046FFF79BFF0120206370BDA9
:102640005428004010B5C36A0222012B28D002632F
:10265000804ACA23D3605323D3603423B1F5807FEB
:1026600008BF2C239C58B1F5807F24F000449C5077
:102670006FF4085308BF6FF4885314682340136045
:10268000FF23D36000226FF00203C262B1F5807FA6
:1026900008BF6FF00103416B1940416301210163E1
:1026A000104610BD70B578B30446006B20B9002009
:1026B000E062204600F03CF80220754D2063CA20FD
:1026C000A8615320A861204601F0C4FEC8B9E8689B
:1026D0001649261D0840E8604ECEA06931430843E4
:1026E000E9680843E86043EA02406860D4E9090108
:1026F0002A6822F4F85210430843286001F087F852
:1027000020B1FF21A96170BD012070BD6069D4E9CD
:102710000712EB6823F060431A4311430843E86053
:10272000FF20A86101202063002070BDBFFF8FFB48
:1027300010B590B0044601A830210430FDF762FDC9
:1027400020681749884229D14FF480700E904FF4C9
:102750008030019001A8FFF729F908B1FEF794F93C
:1027600010480022816B41F400418163016841F40B
:10277000806101600021006800F480600F900F9874
:102780000220FFF777F80220FFF766F82A200021E1
:102790000022FFF76FF82A20FFF75EF810B010BD97
:1027A00000280040580000582DE9F04700F097FF3E
:1027B0004ED020630120274F01F0F2FA01D1002012
:1027C0001CE0386800F040001AB188B90021E970B7
:1027D00010E008B90020E8702878DFF87CA0D04726
:1027E00080466878D04701F01BF801F080FA03E0DA
:1027F000E878810500F0DAFF01F022FB01F0EAF948
:102800000ED101F0EDFA19BFB862A869D5E9060149
:102810000843F86268680121B8654FF488500DE0FC
:1028200001F0A2FA19BF3863A869D5E90601084387
:10283000786368680221F8654FF408503A681043DD
:1028400038600648026842F40032026001F08AF8FB
:10285000BDE8F0871828004031440008800800587F
:10286000B0B50B4D286860F0A0002860FEF728FE88
:1028700004462868800644BF0020B0BDFEF720FE55
:10288000001BB0F57A7F84BF0320B0BDF1E700BF25
:102890000C280040014800F0F2BE00BF10E000E04C
:1028A000012904D041B9CC48816880200847CA4832
:1028B00081684FF480700847704700BFC648816840
:1028C000402008472DE9F04101F092FA02D1A068BA
:1028D000012802D10220BDE8F08100F073FFED492C
:1028E0000868884620F400400860F9B201F044FA14
:1028F00020460021002702F0D3FDAF4204D201F0B0
:1029000057FA01370136F8E701F06DF900F0F5FEEE
:1029100018BF0120BDE8F0812DE9F04101F068FA0F
:1029200002D1A068012802D10220BDE8F081012572
:1029300020461E4617468846A56002F0DDFD48F099
:1029400010005FFA88F1942818BF00252571D14D39
:10295000286820F40040286001F00EFA2EB117F824
:10296000011B01F009FA013EF8E72868B8F1840F6D
:1029700040F40040286002D0204602F0D9FD00F06B
:10298000BCFE18BF0120BDE8F08100BF92488168FD
:102990002020084790488168102008477CB50446ED
:1029A00000200DF1060212210223ADF80600204698
:1029B000FFF788FF9DF807609DF80650F00702D0EA
:1029C000204600F005F9B00702D5204600F0F2F8E5
:1029D000700702D5204600F091F8300702D5204656
:1029E00000F0F2F8F00602D52046FFF7D3FFB0065C
:1029F00002D52046FFF7CAFF700602D52046FFF732
:102A00005DFF300604D505F001012046FFF748FFC1
:102A1000A80702D5204600F0D1F80DF106022046A5
:102A200002210223FFF778FF7CBD0000BCB510B384
:102A30000446C06820B90020A060204600F046F897
:102A400002201E4A6423E0601D48815821F40041A1
:102A500081501C490968C1EBC101C1F34C41594384
:102A60000191019949B1019B013B019383585B049A
:102A7000F7D4002503E001251DE001252561D0F8EC
:102A8000882042F40042C0F888200F4A136843F4BB
:102A900080531360026842F4006202604FF40062E7
:102AA000026131B1206802F0BDFC002020610120EC
:102AB00020710120E0602846BCBD00BF8CFCFFFFF8
:102AC000080400583800002090080058E0B50A4873
:102AD0000022016841F0010101600021006800F05E
:102AE0000100019001983220FEF7C4FE3220BDE8BB
:102AF0008C40FEF7B1BE00BF6400005836488168C4
:102B0000042008472DE9F84301F072F902D1A068CA
:102B1000012802D10220BDE8F88300F053FE5D4990
:102B2000DFF8748100F0E7FF1E21C04720463946D8
:102B3000C047204600210027C047AF4204D201F021
:102B400037F901370136F8E700F016FF00F0D5FD40
:102B500018BF0120BDE8F8832DE9F84301F048F9DA
:102B600002D1A068012802D10220BDE8F88300F05C
:102B700029FE4849DFF8208100F0BDFF1D21C04734
:102B8000390A2046C047F9B22046C04720460021F6
:102B90000027C047AF4204D201F00AF901370136DD
:102BA000F8E700F0E9FE00F0A8FD18BF0120BDE83D
:102BB000F88300BF084881680220084706488168FA
:102BC0004FF40070084700BF034881680820084799
:102BD0000148816801200847F40100202DE9F041F7
:102BE00001F006F902D1A068012802D10220BDE857
:102BF000F08100F0E7FD27490868884620F400408E
:102C0000086020460E2102F04BFC2046394602F0B7
:102C100047FC2DB116F8011B01F0AEF8013DF8E7B5
:102C200000F0E1FF00F069FD18BF0120BDE8F08170
:102C30002DE9F84301F0DCF81CBF0220BDE8F88361
:102C40000F46A1680220012921D0E06001201D4625
:102C50001646A060204602F04FFC0E49DFF838808F
:102C600000F049FF0D21C047390A2046C047F9B29C
:102C70002046C0472DB116F8011B01F07DF8013D3B
:102C8000F8E700F079FE00F038FD18BF0120BDE83C
:102C9000F88300BF90040058A1540008014800F0D8
:102CA00056BE00BF10E000E010B500F03BFF04BFCF
:102CB000022010BD2420C4F8840020680168026846
:102CC00022F0010241F0005102600122C4F880208C
:102CD0004FF0005262660160204603F001FC0020C4
:102CE0002021C4F88000C4F8841010BD0146D0F83B
:102CF0008000012804BF022070470020C1F8800036
:102D000009680A6842F002020A607047704770471B
:102D1000B0B500F007FF04BF0220B0BD00F0FFFC1B
:102D200022F0606200F06EFF00F05DBDB0B500F013
:102D3000F9FE04BF0220B0BD00F0F1FC22F06042B9
:102D400000F060FF00F04FBDBCB500F0EBFE04BF2B
:102D50000220BCBD2420C4F884002068036823F04E
:102D6000010303600123C4F88030836823F4401317
:102D70000B43836059B9436891B223F010031943A0
:102D80004160C2F30741426861F31F62426001681B
:102D900041F001010160FEF793FB03466FF07E40B6
:102DA0004FF48001002200250090204603F00EFF22
:102DB00008B1032003E02020C4F884000020C4F8F8
:102DC0008050BCBD704770477047000070B5016807
:102DD000044640F60F05CA6908688B682A4272D01B
:102DE0008B4D00EA05068B4D1D40761975D0D60730
:102DF00009D0C60507D501260E62D4F88C6046F0CE
:102E00000106C4F88C60960709D5DE0707D00226B4
:102E10000E62D4F88C6046F00406C4F88C60560745
:102E200009D5DE0707D004260E62D4F88C6046F080
:102E30000206C4F88C6016070BD500F02006354357
:102E400007D008250D62D4F88C5045F00805C4F869
:102E50008C5015050AD5450108D54FF400650D6263
:102E6000D4F88C5045F02005C4F88C50D4F88C5020
:102E7000002D70D092060AD500F0200003F0805299
:102E8000801804D0226F12B1204690472168D4F8F0
:102E90008C00896800F0280001F04001401854D0EF
:102EA000204603F003FC20688168490648D500F0FD
:102EB000BCFC45D05849C163FDF791FF00284AD0BA
:102EC000E06FC16B1FE0950607D500F0200503F009
:102ED0008056AD1901D0216F13E0E56E012D03D1AD
:102EE000D50601D5C50637D4D50201D55D021FD45C
:102EF00015060BD500F0800503F400035B1905D01F
:102F0000616F41B32046BDE870400847530601D5C4
:102F1000430644D4110201D541004ED4D1011AD543
:102F2000B0F1FF3F17DC2046BDE87040FFF7EFBE71
:102F30004FF4801008622046BDE87040FFF743BFA1
:102F40002046BDE87040FFF73FBF2046FFF73CFF3B
:102F50000020C4F88C0070BD10200862886840060C
:102F600030D4B4F85E00B4F85C20B4F85E30002BC6
:102F7000F1D0101A0204EED00A68284B22F49072A5
:102F80000A608A681A408A602022C4F888200022D9
:102F9000E26622670A6822F010020A6032E00868DE
:102FA00020F040000860002060672020C4F8840002
:102FB0002046BDE8704000F047B92046BDE87040AB
:102FC000FFF700BFE06F03685D68AEB2002EC2D0AD
:102FD000B4F85C209642BED2A4F85E501B689B06F3
:102FE0000DD400F0E9FEC4F888200022E2660A68E9
:102FF00022F010020A60FDF7BDFEB4F85C20B4F8C0
:103000005E00101A81B22046BDE87040FFF77EBE18
:10301000200100040100001019660008FEFFFFEF08
:1030200010B548B10446D0F8840008B900F0E4FDBA
:1030300000F06AFB012801D1012010BDA06A08B18F
:1030400000F0AFFD00F09CFD21F02A01816000F04E
:10305000D3FEBDE8104003F0B9BA000010B5044635
:1030600000683D49884218BF10BD0948016821F435
:10307000003101604FF090400C21FEF7E5F8A06FA1
:10308000FDF7F0FE2520BDE81040FEF7D3BB00BFE2
:103090005800005870B594B004460EA81421FDF7EE
:1030A000B1F8684634210430FDF7ACF820682A49AD
:1030B00088424FD129480225009502906846FEF7C4
:1030C00075FC08B1FDF7E0FCF4480026C16841F446
:1030D0000031C160C16801F4003113911399016896
:1030E00041F001010160006800F001001390072029
:1030F000CDE90F561290032011900C200E901398DA
:103100000EA94FF09040FEF715F91548154D802196
:1031100010221423C0E90053C0E90226C0E90416B6
:10312000C0E906660662FDF73DFF08B1FDF7ACFC9D
:103130000B4D10212846FDF785FE08B1FDF7A4FCD4
:10314000252002210022EC62A567FEF793FB2520D3
:10315000FEF782FB14B070BD0044004004000C0078
:10316000540800205800024010B5D0F88830202BB9
:1031700005D131B12AB1D0F88030012B03D102241E
:1031800008E0012406E000240123C466C0F8803072
:1031900003F0B8FC204610BD10B50446084843684B
:1031A00033B1D4F88C0018B90548012100229847A2
:1031B000034920460122BDE81040FFF7D5BF00BFFC
:1031C00048010020F8B50546D0F88400202806D133
:1031D00031B3134622B3D5F88000012801D102246F
:1031E0001FE000240120A5F85630C5F88C40C5F832
:1031F00080002120A5F854302965C5F88400A86F07
:1032000088B10E4A0E4E0F4FC0E90E242A68C0E95D
:103210000C762832FDF724FF28B1102000F0EDFBDA
:1032200001242046F8BD286840210162C5F880408D
:10323000816841F080018160F3E700BF29660008E2
:10324000A76600087F66000801480168002008475B
:10325000400700207047FEE700688169890744BF86
:10326000002181628169C90703D1816941F00101AF
:1032700081617047F8B5044600680E468169C90649
:103280005CBF0020F8BD1546771C816989060AD409
:10329000002FFAD0FEF714F9411B2020B1420ED8BE
:1032A0006EB12068F1E71021C1612021C16100F0F9
:1032B0007BFC2068424A4168114041600420E16C77
:1032C000084300F0B5FB0120F8BD00BF70B50068F1
:1032D0006FF39F21049D064E1943446841EA024161
:1032E000294324EA555434402143416070BD00BF56
:1032F000009C00FC2DE9F843DDF820801D461646B1
:103300000F4681465C1CD9F8000080693840C01B1C
:10331000B0FA80F04009B0421AD1002CF3D0FEF789
:10332000CFF8A0EB0800A84201D8002DEBD1D9F8C6
:103330004C0040F02000C9F84C002020C9F844009F
:103340000020C9F84000C9F848000120BDE8F88312
:103350000020BDE8F883000070B515460E4604460F
:103360002068806940071BD400F07CFC28BB2068E3
:10337000816989060FD4FEF7A3F8401BB04201D83B
:10338000002EEDD1E06C40F02000E06400202064CD
:103390002020606411E08169490703D5218D09B1BE
:1033A000002070BD2021064BC16142681A40426076
:1033B0000020E06461642064A064012070BD00BF4F
:1033C00000E800FE70B515460E4604462068806988
:1033D000800644BF002070BD00F044FC58B9FEF7E1
:1033E0006FF8401BB04201D8002EEFD1E06C40F0E6
:1033F000200000F01DFB012070BDF8B515460E46FB
:1034000004464F1C20688069800744BF0020F8BD37
:1034100000F028FC68B9002FF4D0FEF751F8401BEB
:10342000B04201D8002EEDD1E06C40F0200000F059
:10343000FFFA0120F8BD000081B005490A68024387
:103440000A60096808400090009801B0704700BF0A
:103450004800005881B025490A6802430A6009689B
:1034600008400090009801B0704700BF81B01F492C
:103470000A6802430A60096808400090009801B099
:10348000704700BF81B019490A6802430A600968A1
:1034900008400090009801B0704700BF4C000058F1
:1034A00081B012490A6802430A6009680840009026
:1034B000009801B0704700BF81B00C490A68024310
:1034C0000A60096808400090009801B0704700BF8A
:1034D00081B00648016841F004010160006800F015
:1034E00004000090009801B0704700BF4C000058E5
:1034F000064A6FF47F2161EA101100F47F401368DF
:10350000194041EA00101060704700BF8800005861
:1035100080B50420FFF790FF0120FFF78DFF0F20FB
:1035200002210022FEF7A6F90F20BDE88040FEF739
:1035300093B9000080B58CB001A82821FCF762FE89
:10354000174800224FF480714FF08043C0E90821F2
:103550001F21C0E90422C0E90623816011490160EE
:10356000FFF7A0F808B1FDF78FFA0D48FFF734F820
:1035700008B1FDF789FA4FF4807001220B904FF0EB
:10358000005007900020069002900890044801A97E
:10359000FFF70AF908B1FDF777FA0CB080BD00BF5C
:1035A000B80800200028004080B5054808210160C7
:1035B000FFF73CFA18B1BDE88040FDF765BA80BD61
:1035C000F408002080B502F0F3FCBDE8804002F072
:1035D00051BC4FF0FF3003F027BC000010B5174C72
:1035E00000210C20164B4FF4E132C4E90410C4E969
:1035F000021104F118001421C4E90032FCF702FEA4
:103600002046FFF70DFD08B1FDF73EFA0B480021FB
:10361000FFF78CFB08B1FDF737FA08480021FFF7E8
:1036200077FB08B1FDF730FA0448FFF73DFB18B10E
:10363000BDE81040FDF728BA10BD00BF0809002002
:1036400000440040FEE7704701200021012203F002
:1036500003BB8202810D002310464FF47A72FCF7FF
:1036600087BD21460090284638470021012200905E
:10367000012003F0F1BA50F82420284630470168B1
:1036800041F00201016070474FF47A70FDF716BAFD
:103690004FF47A70FDF712BA086820F00400086051
:1036A00070474FF0B040016841F008010160DAE96D
:1036B0000912036823F0F0031A430260206820F423
:1036C0007F4040EA0120206070474FF6FF72F36FA1
:1036D00062EA01021A4042EA0141F16770470D4671
:1036E000C16A04460220012970470A60FF22CA60AD
:1036F00000210122C1620263704700200121A06005
:103700002069E160002870472420C4F88400206804
:10371000016821F001010160204603F003B9242073
:10372000C4F8840020680568026822F00102026083
:103730000122C4F8802082687047216920680A68E5
:10374000C2624A6882628A684262C96801627047DE
:10375000016821F080410160FDF7B2BE4FF6FF70B5
:103760004FF6FF710022002302F094B80123FFF707
:10377000D3B84DF808ED02F04FFE6FF002005DF88F
:1037800008EB70474FF47A702946082223460090D0
:10379000704720464FF48071FEF754BF00F12805B2
:1037A0002846FEF7BDBE3060FDF78ABE6B782A78EA
:1037B000AE7895F824001B0243EA0242324442EA02
:1037C0000106704701201D4616460F46A0602046A0
:1037D00001F092BE016821F0100101602046B4F8AA
:1037E0005C10FFF793BA2068202105600020C4F820
:1037F0008000C4F88410B0BD0022002302F04AB853
:103800008DF807000323CA60010A000C70472046A8
:1038100000F048BECA22CA605322CA600A687047D4
:10382000000240EA0846A8785047816821F040012C
:103830008160E06F00287047016821F0010101609C
:10384000A06D40F01000A06500202065012060659B
:1038500070472068616A406A0870608D0138608531
:10386000606A01306062208D411E21850904608DEF
:10387000704721F4D0710160816821F001018160FD
:103880002020C4F884007047616A206811F8012B79
:103890008262608D013860856162208D411E2185C4
:1038A0000904608D70478360E38F0133E3877047BD
:1038B00001220262D4F88C2042F00102C4F88C206C
:1038C000704704210162D4F88C0040F00200C4F873
:1038D0008C00704720680222016862F34E3101605B
:1038E0006264016821F470010160B4F8420070471D
:1038F00002220262D4F88C2042F00402C4F88C2028
:10390000704720462946FCF7CEBFCDF80090FFF760
:10391000F1BC00202065012060652046FDF7E2B97A
:10392000B4F84020A36B20C9013843F82250B4F802
:1039300040200132A4F8402070470021B8602046A2
:1039400004F000B8D0E910230120FDF733BC016872
:1039500021F00201016070470546D4F88C0041F265
:1039600088367047FF20F8600020626BE0621143E8
:103970006163012121637047D9F8000040F40040E1
:10398000C9F80000204601F0D3BD20684A4601680E
:1039900021F480710160816801EA090181602021C0
:1039A000C4F88810C4F870A0E16E01297047814600
:1039B000009020464FF4004101221923FFF79ABCE2
:1039C0004DF808ED026822F4C04202602046FCF780
:1039D00049FF216920680A68C2624A6882628A686F
:1039E0004262C9680162016841F0010101605DF84D
:1039F00008EB7047002002F02BB9C5F88C000020BE
:103A0000C5F880002020C5F8840070472167016850
:103A100041F020010160BDE8F88F02206065256D4E
:103A2000012D704700222B460090204603F0CEB8AF
:103A3000E0642020606400202064A0647047206857
:103A4000016841F08001016020462946FCF786BEEE
:103A500001688268B4F86050D4F88830222B70472F
:103A6000B4F85E0000287047FF21FF224FF08073FA
:103A70002185009070474DF808EDA1682046FCF7BD
:103A8000F1FE2068016841F018015DF808EB70470D
:103A90002020C4F88400C4F8880000207047618D9D
:103AA0004FF0007321850090CAB27047A06D40F0BE
:103AB0001000A065002020657047026822F47002A3
:103AC00042EA015202607047A4F84220026822F0E4
:103AD000180202600122C4E90D137047016841F029
:103AE000010101607047096801F00F0152F82110CF
:103AF000B0FBF1F070470868894620F40040086088
:103B000020467047016821F490710160816821F0BE
:103B1000010181602021C4F8881000212167E16E35
:103B2000012970470446D0F88000012870474DF8FD
:103B300008ED026822F4C04202602046FCF792FEC3
:103B4000216A20680A68C2624A6882628A684262A0
:103B5000C9680162016841F0010101605DF808EB8C
:103B60007047214600F12005284603F05FBA8169BD
:103B700041F00801816110BD20462946FCF7B3BD24
:103B80002068416821F49041416081687047087065
:103B9000B4F85E000138A4F85E0070472046FFF7D5
:103BA000FBBA204602F0BEBC2046FFF755BB20689A
:103BB000016821F001010160012060657047411B2F
:103BC000032002297047F26F22EA114289B21143A1
:103BD000F1677047CA21F9605321F9603968AA6A10
:103BE000B2F5807F7047D8F8000040F40040C8F874
:103BF0000000204601F09CBC0020C4F88000204654
:103C0000FFF748BA11438160204602F069BC0446C0
:103C1000406C20287047A08FA26952F8200088606D
:103C2000A08F0130A087A08F52F820008860A08F5D
:103C30000130A087A08F52F820008860A08F01304B
:103C4000A087A08F52F8200088602946A08F0130FD
:103C5000A0872046FCF727BE4FF400510160201DCD
:103C600003F032BA204631462A46FFF703BB2068EC
:103C70006A46016841F0800101600021704700F14F
:103C8000100121F00F01091A206802687047A1682D
:103C90002046FCF7E7BDA06D40F020007047A06D06
:103CA00040F0080070470027C16142681A40426036
:103CB00061642764A7647047E28FB4F84200B4F8E7
:103CC0004010B2EB900F70470446406D01287047DA
:103CD00002216164016841F00101016070470168DF
:103CE00041F48041016070473860FDF7E9BB31184D
:103CF000EA7895F8240041EA825650476423226806
:103D0000C2EBC202C2F34C425A43704740F2FF106A
:103D100002F054B862F34E300860086840F00100C9
:103D20007047608DB0F5807F704760641020A0649C
:103D30000020E06466856063656270474DF808EDB9
:103D4000A1682046FCF78EFD606900285DF808EB4D
:103D5000704701271E46154688462764FDF7B0BB0D
:103D6000C4F89000FDF7ACBB21F408513960022182
:103D70007964B9F5807F7047204601F091BB8DF8DA
:103D8000060049F2C140ADF8040070470446B0F89F
:103D90004260C06A0D46012870473846BDE8F88386
:103DA000E06257F80C0C00F44079B9F5807F704759
:103DB0002046314601F048BB0A6822F480720A604E
:103DC0008A6822F001028A608A6822F040028A60D2
:103DD00020227047304601F09BBD4A46FFF7F2BAF9
:103DE00021F48851396001217964B9F5807F7047E9
:103DF0000446C06801287047016841F00101016074
:103E000020467047636B226853F820009060E08F73
:103E10000130E087E08F53F820009060E08F0130A0
:103E2000E087E08F53F820009060E08F0130E0875A
:103E3000E08F53F8200090607047012000F0EABD49
:103E40002A6A6969324342EA0060084370470021E8
:103E500094F8940001F01CBFF8B507468E481C4644
:103E600015460E46C06A80478A48394632468680E3
:103E70008B482030FCF7ADF98A480121C160C4703D
:103E8000857001200021BDE8F84003F041B800BF73
:103E900080B58148C06A804782480321C160012003
:103EA0000021BDE8804003F033B800BF80B57A48F8
:103EB000C06A80477B480221C16001200021BDE823
:103EC000804003F025B800BF80B57348C06A8047C2
:103ED00074480421C16001200021BDE8804003F046
:103EE00017B800BF80B56C48C06A80476D4805218F
:103EF000C16001200021BDE8804003F009B800BF87
:103F0000704780B5FEF7CAFE00200121BDE8804061
:103F1000FDF72ABD80B5FEF7C1FE0448012101600E
:103F20000120BDE88040FDF7FDBC00BF88040058BB
:103F30007047FEF7AFBC80B5FEF7ACFCBDE8804033
:103F400003F04ABF70470000F8B54E48017849B108
:103F500000210170FDF7B4FA4B4908604B4801217C
:103F6000017003E049480078012808D1FDF7A8FA5C
:103F700045490968401A4649096888422BD2454E8E
:103F80007078B8B34448C168446B444888474FF4DC
:103F9000FA70A047424D06F11400012305F12004F8
:103FA0002A46214603F014F9288C3E4FFFF7C5FC42
:103FB000D0B13078F0B907F1180021462A46012324
:103FC00003F006F9288CFFF7B8FC98B9FDF778FAEA
:103FD0002D4908600EE02F484FF48071A0F80110C1
:103FE0002A480021017007E0B868013802289CBF08
:103FF00001203070B078B0B3264D012105F10800E2
:1040000003F0A0FC264C274E0020202807D03218B1
:104010002118013092F8382081F82020F5E728781F
:1040200040B906F1180004F1200106F158020023FE
:1040300003F0CEF8203405F1140006F158020023F5
:10404000214603F0C5F81448C168866AC76D164852
:104050008847B8470A30FDF743F829792046B0472A
:104060000120A5F801000B480D4A0021002380889B
:10407000DCB2A04298BFF8BD52FA83F4013384F851
:104080002010F5E7E1000020C40A0020C00900204C
:1040900058010020000000202080000880CF003759
:1040A0008C02002014020020C072EB36032811D8C5
:1040B00070B5044608A00C4D0C4E0821FFF7DBFA42
:1040C0000BA01021FFF7D7FA0DA02021FFF7D3FA9C
:1040D000BDE87040002070470000000001000000B3
:1040E000010000000100000000080048B5140008AD
:1040F00000000000010000000100000000000000BE
:1041000000000000000000000100000001000000AD
:10411000022070470A20704770B586B000240594CD
:10412000FFF7D6F90320144ECDE903400120114CCE
:1041300002901020019001AD20462946B047202072
:10414000294601902046B047082029460190204684
:10415000B0470A4D204620210022A84720461021C2
:104160000022A847204608210022A847002006B0C8
:1041700070BD00BF0008004835130008B5140008E2
:10418000002070470120704770B53C21214A01EAA8
:1041900090001E4908581E49FFF7A5FC1E49B0FBB8
:1041A000F1F4FDF7D3FBB0F5007F09D11D490020E4
:1041B00003280FD031F8102094420DD90130F7E7D1
:1041C00016490020032805D031F81020944203D965
:1041D0000130F7E7002502E0114951F82050124E56
:1041E000306820F007002843FFF7DDFA0446306806
:1041F00000F00700A84204BF002070BDFDF760F981
:10420000001B032824BF032070BDF0E7E07F0008F7
:1042100008010058C47E000840420F00B27E00082A
:10422000B87E0008AC7E00080040005880B50A48FF
:104230000A4A0B4B0021C0E90911C1624161C0E982
:104240000031C0E90212FCF74FFD18B1BDE8804013
:10425000FCF71ABC80BD00BF44070020B009002055
:1042600000180058B0B5124D1248134A00212C46D0
:1042700044F80C0F0120C4E90121E06004F11000B2
:104280001421FBF7BFFF2046FDF768F900B1FEE7F8
:1042900005F10C0400212046FDF720F900B1FEE7EE
:1042A00020460021FDF73AF900B1FEE7B0BD00BF9E
:1042B000E0000020005C00405D3E302080B50748F3
:1042C000074940F8281F00214160FEF7C1F818B1E6
:1042D000BDE88040FCF7D8BB80BD00BF5001002086
:1042E000001000582DE9F041044600200D46164606
:1042F000C4E90000C8B2C1F3072100F033F8C5F3E8
:104300000741884224D14FEA1568F7B24046394642
:1043100000F028F8C6F30721884219D147EA08209F
:10432000FCF74AF80B4E3146FCF708F80A49FBF750
:10433000D3FF606028BA000CFCF73EF83146FBF76B
:10434000FDFF0649FBF7C8FF0549FBF76DFF20603D
:10435000BDE8F08100FF7F470000C84200002F4306
:10436000000034C278B58DF803108DF80200FF21EB
:1043700000200DF102023123022804BFC8B278BD2B
:10438000145C61400824250609D04EB283EA410539
:10439000B6F1FF3FC8BF4D002946013CF3E70130AD
:1043A000EAE71CB50021019101684A68520709D467
:1043B0004A6822F040024A600169002421F00801A5
:1043C00001612DE00A6842F080420A600A6822F02A
:1043D00080420A6002220192019A013A0192019AF6
:1043E000A2B10A685200F7D44A68520603D54A6857
:1043F00022F040024A6002220192019A013A01929F
:10440000019A1AB14A685207F7D4D5E7012400216E
:10441000C4608160016941F002010161FDF7CEFFD6
:1044200020461CBD0148FEF7F3B800BFB8080020C5
:104430000928014698BF0921CAB20A23B2FBF3F248
:1044400002EB8203A1EB4303591A084440EA02102D
:10445000C0B270472DE9F041114F804638684006E0
:1044600019D438680025012440F080003860FDF739
:1044700027F806463868E14341EA9010C0070BD19F
:10448000FDF71EF8801BB0F57A7FF3D903250024D1
:10449000C8F83050EEE700252846BDE8F08100BF9F
:1044A0000C280040B0B5114D044655F80C0C20F016
:1044B000800045F80C0C2868800605D4FEF7D0F97A
:1044C00060B103202063B0BD286820F02000286080
:1044D000FEF7C6F920B10320206302E00020B0BD42
:1044E0000020296841F020012960B0BD1828004053
:1044F0000120704760B1074A0021B02907D0535806
:1045000008318342F9D9501810F8040C7047FEE7BF
:104510001F207047307F000880B501F075F804381F
:1045200003288EBF002002A151F8200080BD00BFEB
:104530000200000001000000000000000300000075
:1045400080B501F0B7F8033080BD00007CB5CD4EDA
:10455000CD4900253446C1E902550D7101C4174803
:1045600001F008F9002000F07BFA01F0C9FA002000
:10457000002101F053F901200021042201F0DAFBAF
:10458000FFF7ECF800F04AFE0D4B20464FF0FF31EC
:104590000022009502F0D0FC009506F12005094BA1
:1045A0004FF0FF310022284602F0C6FC204602F000
:1045B0008BFD2846BDE87C4002F086BDAD47000873
:1045C000D1470008B9470008BCB5AF4CD4F89000FB
:1045D000B0F5007F3CD0022849D0202800F081802F
:1045E000402813D080281CD0B0F5807F24D001282B
:1045F00040F096807C48A34CFFF72EFBFFF7FAF9BA
:104600002068002800F08C80006887E0207908B9D5
:10461000FFF7F0F99B480068002800F081800069EE
:104620007CE0FFF7E7F9EF480068002878D081695F
:10463000002975D0002009E0FFF7DCF9E94800689F
:1046400000286DD0816900296AD001208847BCBD4F
:1046500000F0DAFF04284FD16348E24CFFF7FCFA80
:10466000FFF7C8F9206800285AD0406856E05E4835
:10467000DC4D4FF48051016005F1200002F024FD73
:10468000207980B9FFF7B6F940F60210002101F059
:10469000B7FB40F6441001F0A5F840F0020140F6E7
:1046A000441001F0ADFB1F480DF10701FF2200F09F
:1046B000E9FF04F1500000F0ABFF286880B3856883
:1046C00075B3206D9DF80710012807BF94F95D3080
:1046D00094F95C2094F9583094F955201148A84772
:1046E000BCBDC04D05F1200002F0EEFC207908B9F8
:1046F000FFF780F928680FE000F086FF05280FD14A
:104700003948B84C4FF48051016004F1200002F0A8
:10471000DBFCFFF76FF9206810B1C06800B180477B
:10472000BCBD00BF240500202DE9F0418AB01C4625
:1047300015468846074600F07AFD0020002600F066
:1047400069F9384601F0ECF9012041464FF4167240
:104750000023CDE90266CDE90466CDE90666CDE920
:1047600008600320CDE90080002000F095F90020CA
:1047700000F050F8FFF7E4FEFCF7B2FC02F0F6FBA5
:104780000646304602F0FCFB0746A04203D200F08A
:10479000C5FFA842F5DD0025A74228BF012500F08E
:1047A00046FD28460AB0BDE8F0810000B949C1F8CD
:1047B0009000FFF709BF00BF0B484FF48051016024
:1047C0008848006810B1C06800B10047704700BF5A
:1047D00005484FF4005101608248006810B14068FC
:1047E00000B10047704700BF2804004880B5FFF7BC
:1047F00024FB00200021FEF7FFFFBDE8804000F011
:104800005BBF00F0EFBF00F0F9BF80B500F086FF9E
:1048100080BD0000B0B50446FEF7A0FF2CB1714882
:10482000FFF79FF9284602F019FC6D484FF48051BC
:10483000984C0160FFF70BFB21796FF07F40E26835
:10484000002908BF9001BDE8B04001F099B900BF50
:10485000B0B50446FEF782FF2CB16248FFF781F93C
:10486000284602F0FBFB8B4CFFF7F1FA21796FF041
:104870007F40E268002908BF9001BDE8B04001F028
:1048800091B900BFB8010020240600202DE9F04FA7
:1048900089B08A46064640F2012040F20121FEF727
:1048A000ABFF4F484FF40051DFF8008B016001214E
:1048B00098F8940001F0ECF9D8F80000032800F211
:1048C0008180DFE800F002050A1688F82CA001E0DC
:1048D00088F844A008F1140005E00221404640F8A1
:1048E000141F80F824A001F08BF8304651460022B6
:1048F00066E0EB4623215846FBF784FC0020514636
:1049000032465B4639B1177803F8010B0139FF4392
:1049100002F8017BF6E74FEACA07002007210022D0
:10492000974216D0C2F3C70421EA02030132345D74
:1049300024FA03F321EA020403F001035840C3B24E
:10494000A340C2F3C7041BF804502B430BF80430F8
:10495000E6E7C10146460AF1010941EA8011C0B209
:10496000B0FA80F0400941EA40100BF80A0002203A
:1049700046F8140F304686F8249001F041F8746E22
:10498000E74EF1200021B047F0200021B047E1219F
:10499000642C08BF7021F320B0470421642C08BFA9
:1049A0001D21F220B0474FEA5A11F420B047B81C3D
:1049B000C1B2F520B0475FFA89F158466FF07F42E7
:1049C00000F022FF0748D8F80810041D204602F026
:1049D0002DFB204602F042FB09B0BDE8F08F00BF7E
:1049E00018040048B801002001F09AB8D54A0128FF
:1049F00002D102F1440005E0906A012818BF704717
:104A000002F12C000170C348017002F1140000F0A3
:104A1000F7BF00BFB0B5CB4C012820600AD00328F7
:104A200003D0042815D1002000E00220BDE8B040EA
:104A300001F04CB8012001F049F8207C617C8142F2
:104A40000CD06074002818BF0120BDE8B04000F011
:104A500007B80020002501F039F86574B0BD00BF2B
:104A600010B50446B74844740474FFF7E6F91421FE
:104A70004FF4E860002C18BF342101F0C1F9242163
:104A800040F24170002C18BF4421BDE8104001F0F5
:104A9000B7B900BF240600202DE9F04F85B01446B9
:104AA000DDE911820D46DFF804B917991F46994BCD
:104AB000DDF84090DDF83CA0B8F1000F8BF8041051
:104AC00008BF4FF0FF321A70002918BF4FF00009DD
:104AD00000286AD0012800F0B380042840F0178134
:104AE0000120984601F0C8F809204FF448710027CA
:104AF0005E46CBF870002846CBE91A4146F8647F41
:104B0000FFF7F8FC5D4645F8147F85F8600010203B
:104B1000C5E90477AF6028734FEACA00A880012076
:104B2000C5E9070798F8000028760420FFF772FF10
:104B3000FFF750F9284600F063FF42F2B270CDF85B
:104B40000E70ADF81270ADF80C0003A801F0B4F8C7
:104B5000FFF7DCF8714E40F6B800B047704D00F03A
:104B6000EF0140F6B800A84740F6B9000421A84775
:104B700040F69B00B04700F0E30000F1080140F66A
:104B80009B00A84740F2D160B04740F0180140F2C6
:104B9000D160A84740F2AC60B04700F08F0000F150
:104BA000500140F2AC60A84743E00020002701F02C
:104BB00063F80B205E46CBF86840CBF870002846BF
:104BC00046F8647FFFF796FC5D46139945F8147F1D
:104BD00085F8600088F00100C5E90470182028738A
:104BE0000420A8604FEACA00A880012000294FF0E5
:104BF000010118BFF221C5E9071046480078287660
:104C000000F015FB3068002818BF0120FFF702FFF5
:104C1000FFF7E0F8284600F0F3FEC120CDF807705A
:104C20008DF80B70FFF7ABF801A801F045F8FFF71E
:104C30006DF84FF4FA5009FB00F0B0FBF4F064E0BB
:104C400000204FF0000B01F017F83349A54E01206A
:104C500085F00103BAF10C0F51F8251046F8640FE6
:104C6000776246F8248CC6E90741514698BF0C216B
:104C7000621F022A28BF514626F8281C84F00C0225
:104C8000139946F81C1C169946F8181CFB4909781C
:104C900006F8201CA4F10B013446022938BF4FF05E
:104CA000010BB5FA85F144F8500D1A434909B2FADF
:104CB00082F201EA0B01DFF8F4B65209114386F8DB
:104CC000281000F0B4FA3068002818BF0120FFF760
:104CD000A1FEFFF77FF8204600F092FE5FFA89F010
:104CE00000F0F6FD56F8180C441E40F2367018BF5E
:104CF000012400F077FD00F0FB0040EA840140F25F
:104D0000367001F07DF84FF6FF70CBF80C0005B05F
:104D1000BDE8F08F34000020247F0008E55700082C
:104D2000015E0008B0B50546D3480C46002190F856
:104D3000940000F0ADFF28462146BDE8B04000F0E9
:104D40004FBF00BF240600202DE9FE430D46002A78
:104D50001146C94C1E4618BF01210027002A2171A7
:104D6000CDE9007718BF3E46012812D0002840F058
:104D7000B580E86870B3286960B3287E082829D810
:104D800000216A46884228D0EB695B5C53540131AC
:104D9000F8E7B5F85000E8B1686D01280CBF2F6A3C
:104DA000FF27E86B002818BF012000F065FFF0B274
:104DB00000F08EFD0120E96C05F1400304F180064E
:104DC00060660DCB0DC669B102290DD0012913D142
:104DD00001200FE04FF0FF3780E0E86AC8B34FF0E2
:104DE000FF0938E0002005E0A0F10B0100200229B6
:104DF00038BF012084F88C000120D5E9171244F84F
:104E0000140FB5F8500084F83070C4E90D122085F5
:104E1000686DE06200F00BFAFFF70FF804F1500044
:104E200000F076FD204600F0EBFDA06B451E40F241
:104E3000367018BF012500F0D5FC00F0FB0040EAF9
:104E4000850140F2367000F0DBFF4FF6FF7000275F
:104E500042E0D5F820902868002818BF012000F013
:104E60000BFFD5E90110EA680027A04648F8647FE7
:104E7000A2662167FFF73EFB44F8147FE96A84F8D5
:104E80006000686984F81890A060A86AC4E9040109
:104E9000286BA96BC4E90701288AC000A080287E7E
:104EA000C000207300F0C3F90020FFF7B3FD4046B7
:104EB00000F02EFD204600F0A3FD684600F0FCFE49
:104EC000A88C00F07BFFA88E00F0C2FC4FF4FA50D3
:104ED000E9687043B0FBF1F044F8080C3846BDE8CF
:104EE000FE8300BF240600202DE9FE4F149FDDF84D
:104EF0004080DDE90EA9DDF830B00E46054688B1E8
:104F0000012D53D0032D40F098800320FFF782FD40
:104F1000C148022140F8641F1621C0E905B100F024
:104F2000F7FC8AE00096BC4E0B2014463067C6F8AA
:104F300068B018464FF0000B374647F864BFFFF7DC
:104F4000D9FA46F814BF012186F860000120B46543
:104F5000B8F1000F18BFF221C6E9071089F001006F
:104F6000C6E904B0182030730420B0604FEACA00CC
:104F7000B08000F05CF93868002818BF0120FFF706
:104F800049FD384600F0C4FC3046009E00F038FD74
:104F9000C120CDF807B08DF80BB0149FFEF7EFFEDF
:104FA00001A800F089FEFEF7B1FE46E000969A4E99
:104FB00001201399EA4C0D9ABAF10C0F46F8140F20
:104FC00054F82340C6E90D812C497267C6F82C902D
:104FD000ABF10502C6E91BB43446097886F83010F7
:104FE000514698BF0C21022A28BF51463185002224
:104FF000ABF10B010229B3FA83F138BF012283F030
:10500000010344F8500F490911408BF00C021A4378
:10501000B2FA82F25209114386F8781000F007F9CB
:105020002068002818BF0120FFF7F4FC204600F09C
:105030006FFC3046009E00F0E3FCDC4C85F0010084
:10504000D4F8841081F0060150EA010540F6890089
:1050500018BF012500F0C6FB00F0FB0040EA850107
:1050600040F6890000F0CCFE304600F075FD84F873
:105070009400A760BDE8FE8F2406002034000020C5
:10508000B0B514460D4600F04BFD284600F064FD17
:10509000012100F0FDFD4FF47A70444300F03CFE26
:1050A00005482146051D284601F0C0FF2846BDE8F9
:1050B000B04001F0D3BF00BFB80100202DE9FE4F82
:1050C0000E4600219A4615460228CDE9001117D058
:1050D00001281ED0002840F09380B068A8B1D6F80F
:1050E0001090B9F1000F10D0347D082C0DD800219C
:1050F0006A468C4250D0B3695B5C53540131F8E787
:10510000B06810B1B0F57A7F38D94FF0FF30BDE804
:10511000FE8FA64F06F1300401201ECC002C47F86C
:10512000140F07F16C0CACE80E00B6F8401039858E
:10513000716CF962B16C7963F16C3E46B96318BF6A
:10514000012487F8784046F8500F00F070F8FEF719
:1051500074FEFEF73FFE384600F052FC3C6F40F60E
:10516000890000F03FFB062C0CBF00F0FB0140F073
:10517000040140F6890000F043FE41E002200224D1
:10518000FFF748FC8948162140F8644F8161316D72
:10519000416100F0BDFB33E0844F4FF0000BB86677
:1051A000D6E90010B84648F864BF3967FFF7A2F99E
:1051B00047F814BFD6E90812F36A87F86000F06870
:1051C000C7E904B1C7E90723B865E00038730420D4
:1051D000B8604FEAC900B88000F029F80020FFF756
:1051E00019FC404600F094FB384600F009FC684684
:1051F00000F062FDB08B00F0E1FD308D00F028FB87
:10520000284600F0A9FC694981F894000020C1F803
:1052100008A0BDE8FE8F00BF2406002080B5042052
:1052200000F0FCFC0220BDE88040FBF759BF0020E5
:1052300000F00EBD80B54FF4C0704FF4C071FEF7A2
:10524000DBFABDE8804000F0F7BA0000F0B50DF1E0
:10525000140C089E01289CE8901010D0002860D102
:105260000CEB0400002E18BF02302021002F18BFC5
:10527000182101EBC0004FF47A71484353E019B98B
:10528000A2F10B00022804D30020012908BF0C2A38
:1052900000D101201425002F18BF0025A5EB8205A1
:1052A000002E6FF0070618BF1035072A05EBCC0556
:1052B00028BF08359700002818BF06EB82070C2688
:1052C000072A38BF97003846002DC8BF2844013848
:1052D0000C250C2C90FBF7F088BF2646571F022F99
:1052E00028BF2646072A38BF0E25AC190433023AD8
:1052F00000FB03408000013090404FF47A7250432D
:10530000174A52F8211000220A290CD8DFE801F0D0
:1053100006101316191B1D0B1F22250041F684626F
:1053200001E00122002010440138B0FBF2F0F0BD92
:1053300043F60952F7E747F61222F4E74FF2244208
:10534000F1E70A4AEFE7084AEDE7064AEBE742F6DB
:10535000B102E8E745F26112E5E74AF2C322E2E76B
:10536000247F000820A1070090D0030048E8010036
:1053700080B500F0F1FB012100F08AFCBDE880401F
:1053800000F0CABC80B50948012190F8940000F0F3
:105390007FFC4FF4D7602D2100F032FD00F0C2FCFD
:1053A0000348BDE8804000F0A5BC00BF24060020F3
:1053B000FFFF0F0000F024BD00F02EBD10B5044625
:1053C000FEF7DEFE012818BF10BD40F6231000F0E6
:1053D00009FA00F0F90040EA040140F62310BDE8A4
:1053E000104000F00DBD000000210D4AB0F5803FD7
:1053F00038BF012138BF00040901B0F1807F3CBFF4
:1054000008310002B0F1805F38BF043138BF0001BD
:10541000000F81F01F01105C081AC0B2704700BF76
:1054200040810008074940F441700A6822F04002B8
:105430000A6008604FF4B8504860086840F04000C7
:105440000860704700000158B8B5484CFEF756FC9C
:10545000284B0092009A3AB1009A013A00921A68D9
:105460009207F7D5002201E001220261FF251D719C
:1054700064252468C4EBC404C4F34C446C43009416
:10548000009C34B1009C013C00941C68E407F7D0F8
:1054900001E001220261586808701046B8BD00BFE3
:1054A00018B5324CFEF72AFC124B0092009A3AB122
:1054B000009A013A00921A689207F7D5002201E09B
:1054C00001220261197121686424C1EBC101C1F399
:1054D0004C4161430091009931B10099013900912B
:1054E0001968C907F7D001E0012202615868104627
:1054F00018BD00BF08000158B0B504460079012866
:105500000BD1084D286820F4004028600120FBF7EB
:10551000E7FD286840F4004028602046BDE8B04020
:1055200000F006B890040058E848FDF737BA00BF0D
:1055300081B00E496422096801EB4101C1F34B417E
:10554000514300910A490A68009B53B1009B92089D
:10555000013B00930B6802EA5302D207F3D100200B
:1055600002E002210161012001B0704738000020F3
:1055700014040058E0B500F07F000DF10702892106
:1055800001238DF80700E148FDF7C6F98CBD00BF87
:10559000E0B51849884204D3E1208DF80600E920DF
:1055A0001EE01549884204D3D7208DF80600DB2081
:1055B00016E01249884204D3C1208DF80600C520A8
:1055C0000EE00F49884204D375208DF80600812033
:1055D00006E00C49884205D36B208DF806006F2049
:1055E0008DF80700C9480DF1060298210223FDF746
:1055F00093F98CBD01E9A43581F8A9328144E52DE8
:10560000010B6B1B41FC5419A148C068704700BFD7
:105610001CB50446BD480DF1050214210323FDF716
:1056200051F9ED4801690129216010D009BB9DF8AD
:1056300005009DF806109DF8072020710020A0604D
:1056400048424008A0715042400860711CBD40684B
:105650009DF8071020619DF8050040424008207326
:105660009DF9060002308008607348424008A0732C
:105670001CBD20460021142201F0BAFB0F2020603F
:105680001CBD00BF7CB50E46044600200DF107018D
:1056900015468DF80700304600F04EF83278AA42E1
:1056A00084BF01207CBD9DF80700214600F094F8DE
:1056B00000207CBDFEF72EBD7CB50020019040F699
:1056C000E20000F08FF8144E044600F0FE0140F6B0
:1056D000E200B04740F6E50000F084F8054600F02F
:1056E0007F0140F6E500B0476FF07F4000F048FAD8
:1056F00001A940F61900042200F080F8002000F013
:10570000A7FA40F6E2002146B04740F6E5002946F8
:10571000B04701987CBD00BF015E0008E0B5EA48D3
:105720000DF1070215210123FDF7CCF89DF80700C4
:10573000404240108CBD00BFBCB50546EC480C464D
:105740000DF1060213210223FDF7BCF8E7480169B9
:10575000012907D14069012804D140F2027000F00C
:1057600041F801E09DF8060028709DF807002070C0
:10577000BCBD00BF10B508B1DC4988600220FFF74E
:105780001DFEFDF711FFD94C00202070002000F015
:105790005FFAFEF7F7FC01280ED1FEF7BBFC810192
:1057A000012000F093FA40F61110002100F028FBD0
:1057B0007F20FFF7DFFE09E040F61110202100F006
:1057C0001FFB40F61210202100F01AFBFEF7A4FC8C
:1057D0000120E06010BD00BF13460A460146F048B4
:1057E000FDF790B9E0B50146ED480DF10702012340
:1057F000FDF7B2F99DF807008CBD00BF13460A46BD
:105800000146E748FDF7A8B910B5144600F072F953
:105810002046BDE8104000F06DBA0000E0B58DF8FC
:105820000600EE488DF807100DF106028F210223C5
:10583000FDF772F88CBD00BF80B5E848C521002295
:105840000023FDF769F8E4480721C16080BD00BF6F
:10585000E0B540BAADF80600EF48006900B18CBD74
:105860000DF1060140F2BE60022200F0D5FA8CBDB7
:10587000E0B540BAADF80600F448006900B18CBD4F
:105880000DF1060140F2BC60022200F0C5FA8CBDA9
:10589000F4010020E0B58DF80100000A8DF8073012
:1058A0001B0A8DF80520120A8DF80310090A8DF8DD
:1058B0000000EF488DF806308DF804208DF80210B6
:1058C0006A4608210823FDF727F88CBDF40800205C
:1058D000E0B58DF80700ED480DF10702A021FDF7B6
:1058E00045FF9DF8070040280ED341080020CAB2AA
:1058F000202A02D301309108F9E700EBC100C1B2C0
:1059000040F2067000F07CFA8CBD00BFF408002065
:105910001CB5D84904460020CDE90000206809697B
:10592000814202D000F0D2F82168032952D8DFE882
:1059300001F002243339221D002307CA8DF8032009
:10594000227C8DF80420254AB2FBF0F0020A8DF883
:105950000200000C8DF801207E4A8DF800004806F8
:10596000C909FAF705FC010A8DF80700000C0823A5
:105970008DF806108DF8050027E004F11C020423C1
:1059800007CA8DF801108DF802208DF8000094F8F8
:1059900028008DF8030018E0D4E9050104238DF8F0
:1059A000031007E0E168606805238DF80310217C8F
:1059B0008DF804100949B1FBF0F0010A8DF80200DE
:1059C000000C8DF801108DF80000D9486A468B2133
:1059D000FCF7A2FF1CBD00BFF40100200000093D40
:1059E000E0B58DF80400F4488DF807308DF8051007
:1059F0008DF8062001AA95210423FCF78DFF8CBDAC
:105A0000BFB5C44D044600208DF80C00CDE901005F
:105A100020682969814202D000F058F821680329E2
:105A200051D8DFE801F002112202E069F22822D009
:105A3000F12829D14FF6FF70FFF71AFF48F2050051
:105A4000FFF706FF02201FE0E06A062368618DF879
:105A5000060094F830008DF80700D4E90D018DF8A8
:105A60000800208D8DF8091024E094F8240001230B
:105A70008DF8040022E041F60F50FFF7F9FE41F2E5
:105A80002100FFF7E5FE06208DF80B00A068092332
:105A90008DF80600207B8DF80700D4E904018DF80D
:105AA0000800207E8DF809108DF80A00206A8DF814
:105AB0000C00A08800BA000CADF80400D94801AA77
:105AC0008C21FCF729FFBFBDF4080020E0B5C849D0
:105AD0000190086120B940F2AC60002100F090F91B
